{
    "_format": "hh-sol-artifact-1",
    "contractName": "OtpGenerate",
    "sourceName": "contracts/Otp.sol",
    "abi": [
        {
            "anonymous": false,
            "inputs": [
                {
                    "indexed": false,
                    "internalType": "uint256",
                    "name": "OtpId",
                    "type": "uint256"
                }
            ],
            "name": "OtpCreationEvent",
            "type": "event"
        },
        {
            "inputs": [
                {
                    "internalType": "uint256",
                    "name": "_userId",
                    "type": "uint256"
                }
            ],
            "name": "GenerateOtp",
            "outputs": [],
            "stateMutability": "nonpayable",
            "type": "function"
        },
        {
            "inputs": [
                {
                    "internalType": "uint256",
                    "name": "",
                    "type": "uint256"
                }
            ],
            "name": "Otp",
            "outputs": [
                {
                    "internalType": "uint256",
                    "name": "OtpId",
                    "type": "uint256"
                },
                {
                    "internalType": "uint256",
                    "name": "expirationTime",
                    "type": "uint256"
                }
            ],
            "stateMutability": "view",
            "type": "function"
        },
        {
            "inputs": [
                {
                    "internalType": "uint256",
                    "name": "_userId",
                    "type": "uint256"
                },
                {
                    "internalType": "uint256",
                    "name": "_otp",
                    "type": "uint256"
                }
            ],
            "name": "VerifyOtp",
            "outputs": [],
            "stateMutability": "view",
            "type": "function"
        }
    ],
    "bytecode": "0x608060405234801561001057600080fd5b5061057c806100206000396000f3fe608060405234801561001057600080fd5b50600436106100415760003560e01c80632b06277014610046578063e676b39f14610062578063e7e7feb11461007e575b600080fd5b610060600480360381019061005b919061028d565b6100af565b005b61007c600480360381019061007791906102cd565b610161565b005b610098600480360381019061009391906102cd565b61022e565b6040516100a6929190610309565b60405180910390f35b600080838152602001908152602001600020600001548114610106576040517f08c379a00000000000000000000000000000000000000000000000000000000081526004016100fd9061038f565b60405180910390fd5b60008083815260200190815260200160002060010154421061015d576040517f08c379a0000000000000000000000000000000000000000000000000000000008152600401610154906103fb565b60405180910390fd5b5050565b6000424460405160200161017692919061043c565b6040516020818303038152906040528051906020012060001c90506127108161019f9190610497565b600080848152602001908152602001600020600001819055506078426101c591906104f7565b600080848152602001908152602001600020600101819055507feaf7817f117e48b9da98bba8312c685bac8e1b8d2ace3d3aaf4373af343cd3d660008084815260200190815260200160002060000154604051610222919061052b565b60405180910390a15050565b60006020528060005260406000206000915090508060000154908060010154905082565b600080fd5b6000819050919050565b61026a81610257565b811461027557600080fd5b50565b60008135905061028781610261565b92915050565b600080604083850312156102a4576102a3610252565b5b60006102b285828601610278565b92505060206102c385828601610278565b9150509250929050565b6000602082840312156102e3576102e2610252565b5b60006102f184828501610278565b91505092915050565b61030381610257565b82525050565b600060408201905061031e60008301856102fa565b61032b60208301846102fa565b9392505050565b600082825260208201905092915050565b7f456e746572207468652076616c6964204f545000000000000000000000000000600082015250565b6000610379601383610332565b915061038482610343565b602082019050919050565b600060208201905081810360008301526103a88161036c565b9050919050565b7f54696d6520686173206578706972656400000000000000000000000000000000600082015250565b60006103e5601083610332565b91506103f0826103af565b602082019050919050565b60006020820190508181036000830152610414816103d8565b9050919050565b6000819050919050565b61043661043182610257565b61041b565b82525050565b60006104488285610425565b6020820191506104588284610425565b6020820191508190509392505050565b7f4e487b7100000000000000000000000000000000000000000000000000000000600052601260045260246000fd5b60006104a282610257565b91506104ad83610257565b9250826104bd576104bc610468565b5b828206905092915050565b7f4e487b7100000000000000000000000000000000000000000000000000000000600052601160045260246000fd5b600061050282610257565b915061050d83610257565b9250828201905080821115610525576105246104c8565b5b92915050565b600060208201905061054060008301846102fa565b9291505056fea26469706673582212209442f88c6d88ff6b1af78c0aa90c06a4b4ac134601233ea8705d57f24ff1bfbe64736f6c63430008110033",
    "linkReferences": {},
    "deployedLinkReferences": {}
}